:100000000C945C000C946E000C946E000C946E00CA
:100010000C946E000C946E000C946E000C946E00A8
:100020000C946E000C946E000C946E000C946E0098
:100030000C946E000C946E000C946E000C946E0088
:100040000C9433010C946E000C946E000C946E00B2
:100050000C946E000C946E000C946E000C946E0068
:100060000C946E000C946E00000000080002010069
:100070000003040700000000000000000000000072
:10008000250028002B0000000000240027002A0083
:10009000040404040404040402020202020203032E
:1000A0000303030301020408102040800102040836
:1000B000102001020408102011241FBECFEFD8E049
:1000C000DEBFCDBF21E0A0E0B1E001C01D92AB30AA
:1000D000B207E1F70E947D010C942A020C94000003
:1000E00090E0FC01EC55FF4F249180579F4FFC019D
:1000F0008491882399F090E0880F991FFC01EA57BA
:10010000FF4FA591B491FC01E458FF4F8591949164
:100110008FB7F894EC91E22BEC938FBF089590E0A9
:10012000FC01E859FF4F2491FC01EC55FF4F34913D
:10013000FC01E057FF4FE491EE23C9F0222339F090
:10014000233001F1A8F4213019F1223029F1F0E037
:10015000EE0FFF1FE458FF4FA591B4918FB7F894AD
:10016000EC91611126C030953E233C938FBF0895DA
:100170002730A9F02830C9F0243049F78091800059
:100180008F7D03C0809180008F7780938000DFCFC8
:1001900084B58F7784BDDBCF84B58F7DFBCF809115
:1001A000B0008F778093B000D2CF8091B0008F7D68
:1001B000F9CF3E2BDACF3FB7F894809107019091A9
:1001C0000801A0910901B0910A0126B5A89B05C0BC
:1001D0002F3F19F00196A11DB11D3FBFBA2FA92FC6
:1001E000982F8827BC01CD01620F711D811D911DC3
:1001F00042E0660F771F881F991F4A95D1F708952F
:100200008F929F92AF92BF92CF92DF92EF92FF9226
:100210006B017C010E94DB004B015C01C114D10425
:10022000E104F104B9F00E94DB00681979098A0938
:100230009B09683E73408105910580F321E0C21A55
:10024000D108E108F10888EE880E83E0981EA11C11
:10025000B11CE4CFFF90EF90DF90CF90BF90AF90B4
:100260009F908F9008951F920F920FB60F921124B6
:100270002F933F938F939F93AF93BF9380910301ED
:1002800090910401A0910501B09106013091020105
:1002900023E0230F2D3758F50196A11DB11D2093A2
:1002A00002018093030190930401A0930501B09390
:1002B00006018091070190910801A0910901B09178
:1002C0000A010196A11DB11D8093070190930801B9
:1002D000A0930901B0930A01BF91AF919F918F91B3
:1002E0003F912F910F900FBE0F901F90189526E809
:1002F000230F0296A11DB11DD2CF789484B58260E0
:1003000084BD84B5816084BD85B5826085BD85B5B9
:10031000816085BD80916E00816080936E00109237
:1003200081008091810082608093810080918100B2
:100330008160809381008091800081608093800043
:100340008091B10084608093B1008091B0008160A1
:100350008093B00080917A00846080937A008091CD
:100360007A00826080937A0080917A008160809325
:100370007A0080917A00806880937A001092C100A0
:1003800082E090E09093010180930001C091000110
:10039000D0910101CC30D1055CF102E010E08BE09E
:1003A000E82EF12C90E0C92E90E0D92E1093010197
:1003B00000930001C0910001D0910101CC30D10522
:1003C00004F58C2F0E94700061E08C2F0E948F003A
:1003D00064E670E080E090E00E94000160E08C2F15
:1003E0000E948F002196D0930101C0930001E2CFBB
:1003F0008C2F0E9470002196D0930101C0930001C0
:10040000C5CFF0920101E0920001C0910001D091AE
:100410000101C230D105BCF08C2F0E94700061E058
:100420008C2F0E948F0064E670E080E090E00E94D4
:10043000000160E08C2F0E948F002197D093010172
:10044000C0930001E2CFC114D10409F4AFCF0E94E0
:080450000000ACCFF894FFCFCF
:00000001FF
